:100000000C942A000C943C000C943C000C943C0092
:100010000C943C000C943C000C943C000C943C0070
:100020000C943C000C943C000C943C000C943C0060
:100030000C943C000C943C000C943C000C943C0050
:100040000C943C000C943C000C943C000C943C0040
:100050000C943C0011241FBECFE5D8E0DEBFCDBF1D
:1000600020E0A0E6B0E001C01D92A136B207E1F7A2
:100070000E947B000C94B2000C940000989910C070
:100080002FE38DE093E0215080409040E1F700C0E5
:100090000000809160008A3518F4865F80936000CC
:1000A00099990BC02FE38DE093E021508040904060
:1000B000E1F700C00000109260009A9910C02FE391
:1000C0008DE093E0215080409040E1F700C00000B7
:1000D00080916000882319F08A508093600080919D
:1000E00060002FEF829FC001112464E670E00E943F
:1000F0008A006CBF089588EF84BB87E085BB1CBE77
:10010000BB9A83B7886683BF83B7826083BF0E9430
:100110003E00FDCF97FB072E16F4009407D077FD25
:1001200009D00E949E0007FC05D03EF49095819571
:100130009F4F0895709561957F4F0895AA1BBB1B33
:1001400051E107C0AA1FBB1FA617B70710F0A61BD7
:10015000B70B881F991F5A95A9F780959095BC01F8
:08016000CD010895F894FFCFD2
:00000001FF
